{
  "_format": "hh-sol-artifact-1",
  "contractName": "DonationContract",
  "sourceName": "contracts/donate.sol",
  "abi": [
    {
      "anonymous": false,
      "inputs": [
        {
          "indexed": true,
          "internalType": "address",
          "name": "donor",
          "type": "address"
        },
        {
          "indexed": false,
          "internalType": "uint256",
          "name": "amount",
          "type": "uint256"
        },
        {
          "indexed": false,
          "internalType": "uint256",
          "name": "timestamp",
          "type": "uint256"
        }
      ],
      "name": "DonationReceived",
      "type": "event"
    },
    {
      "inputs": [],
      "name": "donate",
      "outputs": [],
      "stateMutability": "payable",
      "type": "function"
    },
    {
      "inputs": [
        {
          "internalType": "uint256",
          "name": "",
          "type": "uint256"
        }
      ],
      "name": "donations",
      "outputs": [
        {
          "internalType": "address",
          "name": "donor",
          "type": "address"
        },
        {
          "internalType": "uint256",
          "name": "amount",
          "type": "uint256"
        },
        {
          "internalType": "uint256",
          "name": "timestamp",
          "type": "uint256"
        }
      ],
      "stateMutability": "view",
      "type": "function"
    },
    {
      "inputs": [],
      "name": "getLastDonations",
      "outputs": [
        {
          "components": [
            {
              "internalType": "address",
              "name": "donor",
              "type": "address"
            },
            {
              "internalType": "uint256",
              "name": "amount",
              "type": "uint256"
            },
            {
              "internalType": "uint256",
              "name": "timestamp",
              "type": "uint256"
            }
          ],
          "internalType": "struct DonationContract.Donation[]",
          "name": "",
          "type": "tuple[]"
        }
      ],
      "stateMutability": "view",
      "type": "function"
    }
  ],
  "bytecode": "0x608060405234801561001057600080fd5b506108c0806100206000396000f3fe6080604052600436106100345760003560e01c80637a77273814610039578063ed88c68e14610064578063f8626af81461006e575b600080fd5b34801561004557600080fd5b5061004e6100ad565b60405161005b9190610680565b60405180910390f35b61006c6102a1565b005b34801561007a57600080fd5b50610095600480360381019061009091906104c6565b610420565b6040516100a493929190610649565b60405180910390f35b60606000808054905090506000600582116100c95760006100d7565b6005826100d6919061078b565b5b90506000600583116100e957826100ec565b60055b905060008167ffffffffffffffff811115610130577f4e487b7100000000000000000000000000000000000000000000000000000000600052604160045260246000fd5b60405190808252806020026020018201604052801561016957816020015b61015661047a565b81526020019060019003908161014e5790505b50905060005b8281101561029657600081856101859190610735565b815481106101bc577f4e487b7100000000000000000000000000000000000000000000000000000000600052603260045260246000fd5b90600052602060002090600302016040518060600160405290816000820160009054906101000a900473ffffffffffffffffffffffffffffffffffffffff1673ffffffffffffffffffffffffffffffffffffffff1673ffffffffffffffffffffffffffffffffffffffff16815260200160018201548152602001600282015481525050828281518110610278577f4e487b7100000000000000000000000000000000000000000000000000000000600052603260045260246000fd5b6020026020010181905250808061028e906107fb565b91505061016f565b508094505050505090565b600034116102e4576040517f08c379a00000000000000000000000000000000000000000000000000000000081526004016102db906106a2565b60405180910390fd5b6102ec61047a565b33816000019073ffffffffffffffffffffffffffffffffffffffff16908173ffffffffffffffffffffffffffffffffffffffff16815250503481602001818152505042816040018181525050600081908060018154018082558091505060019003906000526020600020906003020160009091909190915060008201518160000160006101000a81548173ffffffffffffffffffffffffffffffffffffffff021916908373ffffffffffffffffffffffffffffffffffffffff16021790555060208201518160010155604082015181600201555050806000015173ffffffffffffffffffffffffffffffffffffffff167f4b0304ab2f313234b1cea012339c8f8c3bf2c8bb357d81a579cfdb35d2e3d030826020015183604001516040516104159291906106c2565b60405180910390a250565b6000818154811061043057600080fd5b90600052602060002090600302016000915090508060000160009054906101000a900473ffffffffffffffffffffffffffffffffffffffff16908060010154908060020154905083565b6040518060600160405280600073ffffffffffffffffffffffffffffffffffffffff16815260200160008152602001600081525090565b6000813590506104c081610873565b92915050565b6000602082840312156104d857600080fd5b60006104e6848285016104b1565b91505092915050565b60006104fb83836105e9565b60608301905092915050565b610510816107bf565b82525050565b61051f816107bf565b82525050565b6000610530826106fb565b61053a8185610713565b9350610545836106eb565b8060005b8381101561057657815161055d88826104ef565b975061056883610706565b925050600181019050610549565b5085935050505092915050565b6000610590602683610724565b91507f446f6e6174696f6e20616d6f756e74206d75737420626520677265617465722060008301527f7468616e203000000000000000000000000000000000000000000000000000006020830152604082019050919050565b6060820160008201516105ff6000850182610507565b506020820151610612602085018261062b565b506040820151610625604085018261062b565b50505050565b610634816107f1565b82525050565b610643816107f1565b82525050565b600060608201905061065e6000830186610516565b61066b602083018561063a565b610678604083018461063a565b949350505050565b6000602082019050818103600083015261069a8184610525565b905092915050565b600060208201905081810360008301526106bb81610583565b9050919050565b60006040820190506106d7600083018561063a565b6106e4602083018461063a565b9392505050565b6000819050602082019050919050565b600081519050919050565b6000602082019050919050565b600082825260208201905092915050565b600082825260208201905092915050565b6000610740826107f1565b915061074b836107f1565b9250827fffffffffffffffffffffffffffffffffffffffffffffffffffffffffffffffff038211156107805761077f610844565b5b828201905092915050565b6000610796826107f1565b91506107a1836107f1565b9250828210156107b4576107b3610844565b5b828203905092915050565b60006107ca826107d1565b9050919050565b600073ffffffffffffffffffffffffffffffffffffffff82169050919050565b6000819050919050565b6000610806826107f1565b91507fffffffffffffffffffffffffffffffffffffffffffffffffffffffffffffffff82141561083957610838610844565b5b600182019050919050565b7f4e487b7100000000000000000000000000000000000000000000000000000000600052601160045260246000fd5b61087c816107f1565b811461088757600080fd5b5056fea2646970667358221220ec6e16b0830bfa6c2389cf3479b10b12318c9d37e66b50bb26120c425c1d823764736f6c63430008000033",
  "linkReferences": {},
  "deployedLinkReferences": {}
}