{
  "_format": "hh-sol-artifact-1",
  "contractName": "DonationContract",
  "sourceName": "contracts/donate.sol",
  "abi": [
    {
      "anonymous": false,
      "inputs": [
        {
          "indexed": true,
          "internalType": "address",
          "name": "donor",
          "type": "address"
        },
        {
          "indexed": false,
          "internalType": "uint256",
          "name": "amount",
          "type": "uint256"
        },
        {
          "indexed": false,
          "internalType": "uint256",
          "name": "timestamp",
          "type": "uint256"
        },
        {
          "indexed": true,
          "internalType": "address",
          "name": "artistAddress",
          "type": "address"
        }
      ],
      "name": "DonationReceived",
      "type": "event"
    },
    {
      "inputs": [
        {
          "internalType": "address",
          "name": "_artistAddress",
          "type": "address"
        }
      ],
      "name": "donate",
      "outputs": [],
      "stateMutability": "payable",
      "type": "function"
    },
    {
      "inputs": [
        {
          "internalType": "uint256",
          "name": "",
          "type": "uint256"
        }
      ],
      "name": "donations",
      "outputs": [
        {
          "internalType": "address",
          "name": "donor",
          "type": "address"
        },
        {
          "internalType": "uint256",
          "name": "amount",
          "type": "uint256"
        },
        {
          "internalType": "uint256",
          "name": "timestamp",
          "type": "uint256"
        },
        {
          "internalType": "address",
          "name": "artistAddress",
          "type": "address"
        }
      ],
      "stateMutability": "view",
      "type": "function"
    },
    {
      "inputs": [],
      "name": "getLastDonations",
      "outputs": [
        {
          "components": [
            {
              "internalType": "address",
              "name": "donor",
              "type": "address"
            },
            {
              "internalType": "uint256",
              "name": "amount",
              "type": "uint256"
            },
            {
              "internalType": "uint256",
              "name": "timestamp",
              "type": "uint256"
            },
            {
              "internalType": "address",
              "name": "artistAddress",
              "type": "address"
            }
          ],
          "internalType": "struct DonationContract.Donation[]",
          "name": "",
          "type": "tuple[]"
        }
      ],
      "stateMutability": "view",
      "type": "function"
    }
  ],
  "bytecode": "0x608060405234801561001057600080fd5b50610a65806100206000396000f3fe6080604052600436106100335760003560e01c8062362a95146100385780637a77273814610054578063f8626af81461007f575b600080fd5b610052600480360381019061004d919061060a565b6100bf565b005b34801561006057600080fd5b506100696102d9565b604051610076919061080e565b60405180910390f35b34801561008b57600080fd5b506100a660048036038101906100a19190610633565b61050c565b6040516100b694939291906107c9565b60405180910390f35b60003411610102576040517f08c379a00000000000000000000000000000000000000000000000000000000081526004016100f990610830565b60405180910390fd5b61010a61058c565b33816000019073ffffffffffffffffffffffffffffffffffffffff16908173ffffffffffffffffffffffffffffffffffffffff1681525050348160200181815250504281604001818152505081816060019073ffffffffffffffffffffffffffffffffffffffff16908173ffffffffffffffffffffffffffffffffffffffff1681525050600081908060018154018082558091505060019003906000526020600020906004020160009091909190915060008201518160000160006101000a81548173ffffffffffffffffffffffffffffffffffffffff021916908373ffffffffffffffffffffffffffffffffffffffff160217905550602082015181600101556040820151816002015560608201518160030160006101000a81548173ffffffffffffffffffffffffffffffffffffffff021916908373ffffffffffffffffffffffffffffffffffffffff1602179055505050806060015173ffffffffffffffffffffffffffffffffffffffff16816000015173ffffffffffffffffffffffffffffffffffffffff167f3c547ef53fcd7b2f3a5924552516a274017ed6bfaac99a5290054886a5a469c3836020015184604001516040516102cd929190610850565b60405180910390a35050565b60606000808054905090506000600a82116102f457816102f7565b600a5b905060008167ffffffffffffffff81111561033b577f4e487b7100000000000000000000000000000000000000000000000000000000600052604160045260246000fd5b60405190808252806020026020018201604052801561037457816020015b61036161058c565b8152602001906001900390816103595790505b50905060005b828110156105025760008184866103919190610919565b61039b91906108c3565b815481106103d2577f4e487b7100000000000000000000000000000000000000000000000000000000600052603260045260246000fd5b90600052602060002090600402016040518060800160405290816000820160009054906101000a900473ffffffffffffffffffffffffffffffffffffffff1673ffffffffffffffffffffffffffffffffffffffff1673ffffffffffffffffffffffffffffffffffffffff16815260200160018201548152602001600282015481526020016003820160009054906101000a900473ffffffffffffffffffffffffffffffffffffffff1673ffffffffffffffffffffffffffffffffffffffff1673ffffffffffffffffffffffffffffffffffffffff16815250508282815181106104e4577f4e487b7100000000000000000000000000000000000000000000000000000000600052603260045260246000fd5b602002602001018190525080806104fa90610989565b91505061037a565b5080935050505090565b6000818154811061051c57600080fd5b90600052602060002090600402016000915090508060000160009054906101000a900473ffffffffffffffffffffffffffffffffffffffff16908060010154908060020154908060030160009054906101000a900473ffffffffffffffffffffffffffffffffffffffff16905084565b6040518060800160405280600073ffffffffffffffffffffffffffffffffffffffff1681526020016000815260200160008152602001600073ffffffffffffffffffffffffffffffffffffffff1681525090565b6000813590506105ef81610a01565b92915050565b60008135905061060481610a18565b92915050565b60006020828403121561061c57600080fd5b600061062a848285016105e0565b91505092915050565b60006020828403121561064557600080fd5b6000610653848285016105f5565b91505092915050565b60006106688383610756565b60808301905092915050565b61067d8161094d565b82525050565b61068c8161094d565b82525050565b600061069d82610889565b6106a781856108a1565b93506106b283610879565b8060005b838110156106e35781516106ca888261065c565b97506106d583610894565b9250506001810190506106b6565b5085935050505092915050565b60006106fd6026836108b2565b91507f446f6e6174696f6e20616d6f756e74206d75737420626520677265617465722060008301527f7468616e203000000000000000000000000000000000000000000000000000006020830152604082019050919050565b60808201600082015161076c6000850182610674565b50602082015161077f60208501826107ab565b50604082015161079260408501826107ab565b5060608201516107a56060850182610674565b50505050565b6107b48161097f565b82525050565b6107c38161097f565b82525050565b60006080820190506107de6000830187610683565b6107eb60208301866107ba565b6107f860408301856107ba565b6108056060830184610683565b95945050505050565b600060208201905081810360008301526108288184610692565b905092915050565b60006020820190508181036000830152610849816106f0565b9050919050565b600060408201905061086560008301856107ba565b61087260208301846107ba565b9392505050565b6000819050602082019050919050565b600081519050919050565b6000602082019050919050565b600082825260208201905092915050565b600082825260208201905092915050565b60006108ce8261097f565b91506108d98361097f565b9250827fffffffffffffffffffffffffffffffffffffffffffffffffffffffffffffffff0382111561090e5761090d6109d2565b5b828201905092915050565b60006109248261097f565b915061092f8361097f565b925082821015610942576109416109d2565b5b828203905092915050565b60006109588261095f565b9050919050565b600073ffffffffffffffffffffffffffffffffffffffff82169050919050565b6000819050919050565b60006109948261097f565b91507fffffffffffffffffffffffffffffffffffffffffffffffffffffffffffffffff8214156109c7576109c66109d2565b5b600182019050919050565b7f4e487b7100000000000000000000000000000000000000000000000000000000600052601160045260246000fd5b610a0a8161094d565b8114610a1557600080fd5b50565b610a218161097f565b8114610a2c57600080fd5b5056fea2646970667358221220bb5e4033ee04f1adf7d46f929d0ce19ece71e16ef116b18367ac344456573a9c64736f6c63430008000033",
  "linkReferences": {},
  "deployedLinkReferences": {}
}