{"contracts/donations.sol":{"DonationContract":{"abi":[{"anonymous":false,"inputs":[{"indexed":true,"internalType":"address","name":"donor","type":"address"},{"indexed":false,"internalType":"uint256","name":"amount","type":"uint256"},{"indexed":false,"internalType":"uint256","name":"timestamp","type":"uint256"}],"name":"DonationReceived","type":"event"},{"inputs":[],"name":"donate","outputs":[],"stateMutability":"payable","type":"function"},{"inputs":[{"internalType":"uint256","name":"","type":"uint256"}],"name":"donations","outputs":[{"internalType":"address","name":"donor","type":"address"},{"internalType":"uint256","name":"amount","type":"uint256"},{"internalType":"uint256","name":"timestamp","type":"uint256"}],"stateMutability":"view","type":"function"}],"evm":{"bytecode":{"linkReferences":{},"object":"608060405234801561001057600080fd5b50610463806100206000396000f3fe6080604052600436106100295760003560e01c8063ed88c68e1461002e578063f8626af814610038575b600080fd5b610036610077565b005b34801561004457600080fd5b5061005f600480360381019061005a919061029c565b6101f6565b60405161006e93929190610349565b60405180910390f35b600034116100ba576040517f08c379a00000000000000000000000000000000000000000000000000000000081526004016100b190610380565b60405180910390fd5b6100c2610250565b33816000019073ffffffffffffffffffffffffffffffffffffffff16908173ffffffffffffffffffffffffffffffffffffffff16815250503481602001818152505042816040018181525050600081908060018154018082558091505060019003906000526020600020906003020160009091909190915060008201518160000160006101000a81548173ffffffffffffffffffffffffffffffffffffffff021916908373ffffffffffffffffffffffffffffffffffffffff16021790555060208201518160010155604082015181600201555050806000015173ffffffffffffffffffffffffffffffffffffffff167f4b0304ab2f313234b1cea012339c8f8c3bf2c8bb357d81a579cfdb35d2e3d030826020015183604001516040516101eb9291906103a0565b60405180910390a250565b6000818154811061020657600080fd5b90600052602060002090600302016000915090508060000160009054906101000a900473ffffffffffffffffffffffffffffffffffffffff16908060010154908060020154905083565b6040518060600160405280600073ffffffffffffffffffffffffffffffffffffffff16815260200160008152602001600081525090565b60008135905061029681610416565b92915050565b6000602082840312156102ae57600080fd5b60006102bc84828501610287565b91505092915050565b6102ce816103da565b82525050565b60006102e16026836103c9565b91507f446f6e6174696f6e20616d6f756e74206d75737420626520677265617465722060008301527f7468616e203000000000000000000000000000000000000000000000000000006020830152604082019050919050565b6103438161040c565b82525050565b600060608201905061035e60008301866102c5565b61036b602083018561033a565b610378604083018461033a565b949350505050565b60006020820190508181036000830152610399816102d4565b9050919050565b60006040820190506103b5600083018561033a565b6103c2602083018461033a565b9392505050565b600082825260208201905092915050565b60006103e5826103ec565b9050919050565b600073ffffffffffffffffffffffffffffffffffffffff82169050919050565b6000819050919050565b61041f8161040c565b811461042a57600080fd5b5056fea264697066735822122040e2fb173e6e4c9475a56c3a1d23a29cb92152c9d640511040783169341815ec64736f6c63430008000033","opcodes":"PUSH1 0x80 PUSH1 0x40 MSTORE CALLVALUE DUP1 ISZERO PUSH2 0x10 JUMPI PUSH1 0x0 DUP1 REVERT JUMPDEST POP PUSH2 0x463 DUP1 PUSH2 0x20 PUSH1 0x0 CODECOPY PUSH1 0x0 RETURN INVALID PUSH1 0x80 PUSH1 0x40 MSTORE PUSH1 0x4 CALLDATASIZE LT PUSH2 0x29 JUMPI PUSH1 0x0 CALLDATALOAD PUSH1 0xE0 SHR DUP1 PUSH4 0xED88C68E EQ PUSH2 0x2E JUMPI DUP1 PUSH4 0xF8626AF8 EQ PUSH2 0x38 JUMPI JUMPDEST PUSH1 0x0 DUP1 REVERT JUMPDEST PUSH2 0x36 PUSH2 0x77 JUMP JUMPDEST STOP JUMPDEST CALLVALUE DUP1 ISZERO PUSH2 0x44 JUMPI PUSH1 0x0 DUP1 REVERT JUMPDEST POP PUSH2 0x5F PUSH1 0x4 DUP1 CALLDATASIZE SUB DUP2 ADD SWAP1 PUSH2 0x5A SWAP2 SWAP1 PUSH2 0x29C JUMP JUMPDEST PUSH2 0x1F6 JUMP JUMPDEST PUSH1 0x40 MLOAD PUSH2 0x6E SWAP4 SWAP3 SWAP2 SWAP1 PUSH2 0x349 JUMP JUMPDEST PUSH1 0x40 MLOAD DUP1 SWAP2 SUB SWAP1 RETURN JUMPDEST PUSH1 0x0 CALLVALUE GT PUSH2 0xBA JUMPI PUSH1 0x40 MLOAD PUSH32 0x8C379A000000000000000000000000000000000000000000000000000000000 DUP2 MSTORE PUSH1 0x4 ADD PUSH2 0xB1 SWAP1 PUSH2 0x380 JUMP JUMPDEST PUSH1 0x40 MLOAD DUP1 SWAP2 SUB SWAP1 REVERT JUMPDEST PUSH2 0xC2 PUSH2 0x250 JUMP JUMPDEST CALLER DUP2 PUSH1 0x0 ADD SWAP1 PUSH20 0xFFFFFFFFFFFFFFFFFFFFFFFFFFFFFFFFFFFFFFFF AND SWAP1 DUP2 PUSH20 0xFFFFFFFFFFFFFFFFFFFFFFFFFFFFFFFFFFFFFFFF AND DUP2 MSTORE POP POP CALLVALUE DUP2 PUSH1 0x20 ADD DUP2 DUP2 MSTORE POP POP TIMESTAMP DUP2 PUSH1 0x40 ADD DUP2 DUP2 MSTORE POP POP PUSH1 0x0 DUP2 SWAP1 DUP1 PUSH1 0x1 DUP2 SLOAD ADD DUP1 DUP3 SSTORE DUP1 SWAP2 POP POP PUSH1 0x1 SWAP1 SUB SWAP1 PUSH1 0x0 MSTORE PUSH1 0x20 PUSH1 0x0 KECCAK256 SWAP1 PUSH1 0x3 MUL ADD PUSH1 0x0 SWAP1 SWAP2 SWAP1 SWAP2 SWAP1 SWAP2 POP PUSH1 0x0 DUP3 ADD MLOAD DUP2 PUSH1 0x0 ADD PUSH1 0x0 PUSH2 0x100 EXP DUP2 SLOAD DUP2 PUSH20 0xFFFFFFFFFFFFFFFFFFFFFFFFFFFFFFFFFFFFFFFF MUL NOT AND SWAP1 DUP4 PUSH20 0xFFFFFFFFFFFFFFFFFFFFFFFFFFFFFFFFFFFFFFFF AND MUL OR SWAP1 SSTORE POP PUSH1 0x20 DUP3 ADD MLOAD DUP2 PUSH1 0x1 ADD SSTORE PUSH1 0x40 DUP3 ADD MLOAD DUP2 PUSH1 0x2 ADD SSTORE POP POP DUP1 PUSH1 0x0 ADD MLOAD PUSH20 0xFFFFFFFFFFFFFFFFFFFFFFFFFFFFFFFFFFFFFFFF AND PUSH32 0x4B0304AB2F313234B1CEA012339C8F8C3BF2C8BB357D81A579CFDB35D2E3D030 DUP3 PUSH1 0x20 ADD MLOAD DUP4 PUSH1 0x40 ADD MLOAD PUSH1 0x40 MLOAD PUSH2 0x1EB SWAP3 SWAP2 SWAP1 PUSH2 0x3A0 JUMP JUMPDEST PUSH1 0x40 MLOAD DUP1 SWAP2 SUB SWAP1 LOG2 POP JUMP JUMPDEST PUSH1 0x0 DUP2 DUP2 SLOAD DUP2 LT PUSH2 0x206 JUMPI PUSH1 0x0 DUP1 REVERT JUMPDEST SWAP1 PUSH1 0x0 MSTORE PUSH1 0x20 PUSH1 0x0 KECCAK256 SWAP1 PUSH1 0x3 MUL ADD PUSH1 0x0 SWAP2 POP SWAP1 POP DUP1 PUSH1 0x0 ADD PUSH1 0x0 SWAP1 SLOAD SWAP1 PUSH2 0x100 EXP SWAP1 DIV PUSH20 0xFFFFFFFFFFFFFFFFFFFFFFFFFFFFFFFFFFFFFFFF AND SWAP1 DUP1 PUSH1 0x1 ADD SLOAD SWAP1 DUP1 PUSH1 0x2 ADD SLOAD SWAP1 POP DUP4 JUMP JUMPDEST PUSH1 0x40 MLOAD DUP1 PUSH1 0x60 ADD PUSH1 0x40 MSTORE DUP1 PUSH1 0x0 PUSH20 0xFFFFFFFFFFFFFFFFFFFFFFFFFFFFFFFFFFFFFFFF AND DUP2 MSTORE PUSH1 0x20 ADD PUSH1 0x0 DUP2 MSTORE PUSH1 0x20 ADD PUSH1 0x0 DUP2 MSTORE POP SWAP1 JUMP JUMPDEST PUSH1 0x0 DUP2 CALLDATALOAD SWAP1 POP PUSH2 0x296 DUP2 PUSH2 0x416 JUMP JUMPDEST SWAP3 SWAP2 POP POP JUMP JUMPDEST PUSH1 0x0 PUSH1 0x20 DUP3 DUP5 SUB SLT ISZERO PUSH2 0x2AE JUMPI PUSH1 0x0 DUP1 REVERT JUMPDEST PUSH1 0x0 PUSH2 0x2BC DUP5 DUP3 DUP6 ADD PUSH2 0x287 JUMP JUMPDEST SWAP2 POP POP SWAP3 SWAP2 POP POP JUMP JUMPDEST PUSH2 0x2CE DUP2 PUSH2 0x3DA JUMP JUMPDEST DUP3 MSTORE POP POP JUMP JUMPDEST PUSH1 0x0 PUSH2 0x2E1 PUSH1 0x26 DUP4 PUSH2 0x3C9 JUMP JUMPDEST SWAP2 POP PUSH32 0x446F6E6174696F6E20616D6F756E74206D757374206265206772656174657220 PUSH1 0x0 DUP4 ADD MSTORE PUSH32 0x7468616E20300000000000000000000000000000000000000000000000000000 PUSH1 0x20 DUP4 ADD MSTORE PUSH1 0x40 DUP3 ADD SWAP1 POP SWAP2 SWAP1 POP JUMP JUMPDEST PUSH2 0x343 DUP2 PUSH2 0x40C JUMP JUMPDEST DUP3 MSTORE POP POP JUMP JUMPDEST PUSH1 0x0 PUSH1 0x60 DUP3 ADD SWAP1 POP PUSH2 0x35E PUSH1 0x0 DUP4 ADD DUP7 PUSH2 0x2C5 JUMP JUMPDEST PUSH2 0x36B PUSH1 0x20 DUP4 ADD DUP6 PUSH2 0x33A JUMP JUMPDEST PUSH2 0x378 PUSH1 0x40 DUP4 ADD DUP5 PUSH2 0x33A JUMP JUMPDEST SWAP5 SWAP4 POP POP POP POP JUMP JUMPDEST PUSH1 0x0 PUSH1 0x20 DUP3 ADD SWAP1 POP DUP2 DUP2 SUB PUSH1 0x0 DUP4 ADD MSTORE PUSH2 0x399 DUP2 PUSH2 0x2D4 JUMP JUMPDEST SWAP1 POP SWAP2 SWAP1 POP JUMP JUMPDEST PUSH1 0x0 PUSH1 0x40 DUP3 ADD SWAP1 POP PUSH2 0x3B5 PUSH1 0x0 DUP4 ADD DUP6 PUSH2 0x33A JUMP JUMPDEST PUSH2 0x3C2 PUSH1 0x20 DUP4 ADD DUP5 PUSH2 0x33A JUMP JUMPDEST SWAP4 SWAP3 POP POP POP JUMP JUMPDEST PUSH1 0x0 DUP3 DUP3 MSTORE PUSH1 0x20 DUP3 ADD SWAP1 POP SWAP3 SWAP2 POP POP JUMP JUMPDEST PUSH1 0x0 PUSH2 0x3E5 DUP3 PUSH2 0x3EC JUMP JUMPDEST SWAP1 POP SWAP2 SWAP1 POP JUMP JUMPDEST PUSH1 0x0 PUSH20 0xFFFFFFFFFFFFFFFFFFFFFFFFFFFFFFFFFFFFFFFF DUP3 AND SWAP1 POP SWAP2 SWAP1 POP JUMP JUMPDEST PUSH1 0x0 DUP2 SWAP1 POP SWAP2 SWAP1 POP JUMP JUMPDEST PUSH2 0x41F DUP2 PUSH2 0x40C JUMP JUMPDEST DUP2 EQ PUSH2 0x42A JUMPI PUSH1 0x0 DUP1 REVERT JUMPDEST POP JUMP INVALID LOG2 PUSH5 0x6970667358 0x22 SLT KECCAK256 BLOCKHASH 0xE2 0xFB OR RETURNDATACOPY PUSH15 0x4C9475A56C3A1D23A29CB92152C9D6 BLOCKHASH MLOAD LT BLOCKHASH PUSH25 0x3169341815EC64736F6C634300080000330000000000000000 "},"methodIdentifiers":{"donate()":"ed88c68e","donations(uint256)":"f8626af8"}}}}}