{
  "_format": "hh-sol-artifact-1",
  "contractName": "DonationContract",
  "sourceName": "contracts/donations.sol",
  "abi": [
    {
      "anonymous": false,
      "inputs": [
        {
          "indexed": true,
          "internalType": "address",
          "name": "donor",
          "type": "address"
        },
        {
          "indexed": false,
          "internalType": "uint256",
          "name": "amount",
          "type": "uint256"
        },
        {
          "indexed": false,
          "internalType": "uint256",
          "name": "timestamp",
          "type": "uint256"
        }
      ],
      "name": "DonationReceived",
      "type": "event"
    },
    {
      "inputs": [],
      "name": "donate",
      "outputs": [],
      "stateMutability": "payable",
      "type": "function"
    },
    {
      "inputs": [
        {
          "internalType": "uint256",
          "name": "",
          "type": "uint256"
        }
      ],
      "name": "donations",
      "outputs": [
        {
          "internalType": "address",
          "name": "donor",
          "type": "address"
        },
        {
          "internalType": "uint256",
          "name": "amount",
          "type": "uint256"
        },
        {
          "internalType": "uint256",
          "name": "timestamp",
          "type": "uint256"
        }
      ],
      "stateMutability": "view",
      "type": "function"
    }
  ],
  "bytecode": "0x608060405234801561001057600080fd5b50610463806100206000396000f3fe6080604052600436106100295760003560e01c8063ed88c68e1461002e578063f8626af814610038575b600080fd5b610036610077565b005b34801561004457600080fd5b5061005f600480360381019061005a919061029c565b6101f6565b60405161006e93929190610349565b60405180910390f35b600034116100ba576040517f08c379a00000000000000000000000000000000000000000000000000000000081526004016100b190610380565b60405180910390fd5b6100c2610250565b33816000019073ffffffffffffffffffffffffffffffffffffffff16908173ffffffffffffffffffffffffffffffffffffffff16815250503481602001818152505042816040018181525050600081908060018154018082558091505060019003906000526020600020906003020160009091909190915060008201518160000160006101000a81548173ffffffffffffffffffffffffffffffffffffffff021916908373ffffffffffffffffffffffffffffffffffffffff16021790555060208201518160010155604082015181600201555050806000015173ffffffffffffffffffffffffffffffffffffffff167f4b0304ab2f313234b1cea012339c8f8c3bf2c8bb357d81a579cfdb35d2e3d030826020015183604001516040516101eb9291906103a0565b60405180910390a250565b6000818154811061020657600080fd5b90600052602060002090600302016000915090508060000160009054906101000a900473ffffffffffffffffffffffffffffffffffffffff16908060010154908060020154905083565b6040518060600160405280600073ffffffffffffffffffffffffffffffffffffffff16815260200160008152602001600081525090565b60008135905061029681610416565b92915050565b6000602082840312156102ae57600080fd5b60006102bc84828501610287565b91505092915050565b6102ce816103da565b82525050565b60006102e16026836103c9565b91507f446f6e6174696f6e20616d6f756e74206d75737420626520677265617465722060008301527f7468616e203000000000000000000000000000000000000000000000000000006020830152604082019050919050565b6103438161040c565b82525050565b600060608201905061035e60008301866102c5565b61036b602083018561033a565b610378604083018461033a565b949350505050565b60006020820190508181036000830152610399816102d4565b9050919050565b60006040820190506103b5600083018561033a565b6103c2602083018461033a565b9392505050565b600082825260208201905092915050565b60006103e5826103ec565b9050919050565b600073ffffffffffffffffffffffffffffffffffffffff82169050919050565b6000819050919050565b61041f8161040c565b811461042a57600080fd5b5056fea264697066735822122040e2fb173e6e4c9475a56c3a1d23a29cb92152c9d640511040783169341815ec64736f6c63430008000033",
  "linkReferences": {},
  "deployedLinkReferences": {}
}